{
  "_format": "hh-sol-artifact-1",
  "contractName": "SubscriptionManager",
  "sourceName": "contracts/SubscriptionManager.sol",
  "abi": [
    {
      "anonymous": false,
      "inputs": [
        {
          "indexed": true,
          "internalType": "uint256",
          "name": "subscriptionId",
          "type": "uint256"
        },
        {
          "indexed": true,
          "internalType": "address",
          "name": "user",
          "type": "address"
        },
        {
          "indexed": true,
          "internalType": "address",
          "name": "merchant",
          "type": "address"
        },
        {
          "indexed": false,
          "internalType": "uint256",
          "name": "planId",
          "type": "uint256"
        },
        {
          "indexed": false,
          "internalType": "uint256",
          "name": "startTime",
          "type": "uint256"
        },
        {
          "indexed": false,
          "internalType": "uint256",
          "name": "endTime",
          "type": "uint256"
        }
      ],
      "name": "Subscribed",
      "type": "event"
    },
    {
      "anonymous": false,
      "inputs": [
        {
          "indexed": true,
          "internalType": "uint256",
          "name": "subscriptionId",
          "type": "uint256"
        },
        {
          "indexed": true,
          "internalType": "address",
          "name": "user",
          "type": "address"
        }
      ],
      "name": "SubscriptionCancelled",
      "type": "event"
    },
    {
      "inputs": [
        {
          "internalType": "uint256",
          "name": "subscriptionId",
          "type": "uint256"
        }
      ],
      "name": "cancel",
      "outputs": [],
      "stateMutability": "nonpayable",
      "type": "function"
    },
    {
      "inputs": [
        {
          "internalType": "uint256",
          "name": "subscriptionId",
          "type": "uint256"
        }
      ],
      "name": "isActive",
      "outputs": [
        {
          "internalType": "bool",
          "name": "",
          "type": "bool"
        }
      ],
      "stateMutability": "view",
      "type": "function"
    },
    {
      "inputs": [
        {
          "internalType": "address",
          "name": "merchant",
          "type": "address"
        },
        {
          "internalType": "uint256",
          "name": "planId",
          "type": "uint256"
        },
        {
          "internalType": "uint256",
          "name": "duration",
          "type": "uint256"
        }
      ],
      "name": "subscribe",
      "outputs": [],
      "stateMutability": "payable",
      "type": "function"
    },
    {
      "inputs": [],
      "name": "subscriptionCounter",
      "outputs": [
        {
          "internalType": "uint256",
          "name": "",
          "type": "uint256"
        }
      ],
      "stateMutability": "view",
      "type": "function"
    },
    {
      "inputs": [
        {
          "internalType": "uint256",
          "name": "",
          "type": "uint256"
        }
      ],
      "name": "subscriptions",
      "outputs": [
        {
          "internalType": "address",
          "name": "user",
          "type": "address"
        },
        {
          "internalType": "address",
          "name": "merchant",
          "type": "address"
        },
        {
          "internalType": "uint256",
          "name": "planId",
          "type": "uint256"
        },
        {
          "internalType": "uint256",
          "name": "startTime",
          "type": "uint256"
        },
        {
          "internalType": "uint256",
          "name": "endTime",
          "type": "uint256"
        },
        {
          "internalType": "bool",
          "name": "active",
          "type": "bool"
        }
      ],
      "stateMutability": "view",
      "type": "function"
    }
  ],
  "bytecode": "0x6080604052348015600f57600080fd5b50610d018061001f6000396000f3fe60806040526004361061004a5760003560e01c806322d4a1751461004f5780632d5bbf601461006b57806340e58ee5146100ad57806382afd23b146100d6578063903a829814610113575b600080fd5b61006960048036038101906100649190610826565b61013e565b005b34801561007757600080fd5b50610092600480360381019061008d9190610879565b61047a565b6040516100a4969594939291906108df565b60405180910390f35b3480156100b957600080fd5b506100d460048036038101906100cf9190610879565b610503565b005b3480156100e257600080fd5b506100fd60048036038101906100f89190610879565b610662565b60405161010a9190610940565b60405180910390f35b34801561011f57600080fd5b50610128610787565b604051610135919061095b565b60405180910390f35b60003411610181576040517f08c379a0000000000000000000000000000000000000000000000000000000008152600401610178906109d3565b60405180910390fd5b600073ffffffffffffffffffffffffffffffffffffffff168373ffffffffffffffffffffffffffffffffffffffff16036101f0576040517f08c379a00000000000000000000000000000000000000000000000000000000081526004016101e790610a3f565b60405180910390fd5b60008081548092919061020290610a8e565b91905055506040518060c001604052803373ffffffffffffffffffffffffffffffffffffffff1681526020018473ffffffffffffffffffffffffffffffffffffffff16815260200183815260200142815260200182426102629190610ad6565b815260200160011515815250600160008054815260200190815260200160002060008201518160000160006101000a81548173ffffffffffffffffffffffffffffffffffffffff021916908373ffffffffffffffffffffffffffffffffffffffff16021790555060208201518160010160006101000a81548173ffffffffffffffffffffffffffffffffffffffff021916908373ffffffffffffffffffffffffffffffffffffffff16021790555060408201518160020155606082015181600301556080820151816004015560a08201518160050160006101000a81548160ff02191690831515021790555090505060008373ffffffffffffffffffffffffffffffffffffffff163460405161037790610b3b565b60006040518083038185875af1925050503d80600081146103b4576040519150601f19603f3d011682016040523d82523d6000602084013e6103b9565b606091505b50509050806103fd576040517f08c379a00000000000000000000000000000000000000000000000000000000081526004016103f490610b9c565b60405180910390fd5b8373ffffffffffffffffffffffffffffffffffffffff163373ffffffffffffffffffffffffffffffffffffffff166000547f9289b94d9244f571b4aa41a3bb43b09dde41aa22ce58421ed8b74611bb5c471a8642874261045d9190610ad6565b60405161046c93929190610bbc565b60405180910390a450505050565b60016020528060005260406000206000915090508060000160009054906101000a900473ffffffffffffffffffffffffffffffffffffffff16908060010160009054906101000a900473ffffffffffffffffffffffffffffffffffffffff16908060020154908060030154908060040154908060050160009054906101000a900460ff16905086565b60006001600083815260200190815260200160002090503373ffffffffffffffffffffffffffffffffffffffff168160000160009054906101000a900473ffffffffffffffffffffffffffffffffffffffff1673ffffffffffffffffffffffffffffffffffffffff16146105ac576040517f08c379a00000000000000000000000000000000000000000000000000000000081526004016105a390610c3f565b60405180910390fd5b8060050160009054906101000a900460ff166105fd576040517f08c379a00000000000000000000000000000000000000000000000000000000081526004016105f490610cab565b60405180910390fd5b60008160050160006101000a81548160ff0219169083151502179055503373ffffffffffffffffffffffffffffffffffffffff16827f533734a768f070673b823079652464b7e002bb51cdf15e3108209f397425225f60405160405180910390a35050565b600080600160008481526020019081526020016000206040518060c00160405290816000820160009054906101000a900473ffffffffffffffffffffffffffffffffffffffff1673ffffffffffffffffffffffffffffffffffffffff1673ffffffffffffffffffffffffffffffffffffffff1681526020016001820160009054906101000a900473ffffffffffffffffffffffffffffffffffffffff1673ffffffffffffffffffffffffffffffffffffffff1673ffffffffffffffffffffffffffffffffffffffff1681526020016002820154815260200160038201548152602001600482015481526020016005820160009054906101000a900460ff16151515158152505090508060a00151801561077f575080608001514211155b915050919050565b60005481565b600080fd5b600073ffffffffffffffffffffffffffffffffffffffff82169050919050565b60006107bd82610792565b9050919050565b6107cd816107b2565b81146107d857600080fd5b50565b6000813590506107ea816107c4565b92915050565b6000819050919050565b610803816107f0565b811461080e57600080fd5b50565b600081359050610820816107fa565b92915050565b60008060006060848603121561083f5761083e61078d565b5b600061084d868287016107db565b935050602061085e86828701610811565b925050604061086f86828701610811565b9150509250925092565b60006020828403121561088f5761088e61078d565b5b600061089d84828501610811565b91505092915050565b6108af816107b2565b82525050565b6108be816107f0565b82525050565b60008115159050919050565b6108d9816108c4565b82525050565b600060c0820190506108f460008301896108a6565b61090160208301886108a6565b61090e60408301876108b5565b61091b60608301866108b5565b61092860808301856108b5565b61093560a08301846108d0565b979650505050505050565b600060208201905061095560008301846108d0565b92915050565b600060208201905061097060008301846108b5565b92915050565b600082825260208201905092915050565b7f5061796d656e7420726571756972656400000000000000000000000000000000600082015250565b60006109bd601083610976565b91506109c882610987565b602082019050919050565b600060208201905081810360008301526109ec816109b0565b9050919050565b7f496e76616c6964206d65726368616e7400000000000000000000000000000000600082015250565b6000610a29601083610976565b9150610a34826109f3565b602082019050919050565b60006020820190508181036000830152610a5881610a1c565b9050919050565b7f4e487b7100000000000000000000000000000000000000000000000000000000600052601160045260246000fd5b6000610a99826107f0565b91507fffffffffffffffffffffffffffffffffffffffffffffffffffffffffffffffff8203610acb57610aca610a5f565b5b600182019050919050565b6000610ae1826107f0565b9150610aec836107f0565b9250828201905080821115610b0457610b03610a5f565b5b92915050565b600081905092915050565b50565b6000610b25600083610b0a565b9150610b3082610b15565b600082019050919050565b6000610b4682610b18565b9150819050919050565b7f5061796d656e74206661696c6564000000000000000000000000000000000000600082015250565b6000610b86600e83610976565b9150610b9182610b50565b602082019050919050565b60006020820190508181036000830152610bb581610b79565b9050919050565b6000606082019050610bd160008301866108b5565b610bde60208301856108b5565b610beb60408301846108b5565b949350505050565b7f4e6f7420737562736372697074696f6e206f776e657200000000000000000000600082015250565b6000610c29601683610976565b9150610c3482610bf3565b602082019050919050565b60006020820190508181036000830152610c5881610c1c565b9050919050565b7f416c726561647920696e61637469766500000000000000000000000000000000600082015250565b6000610c95601083610976565b9150610ca082610c5f565b602082019050919050565b60006020820190508181036000830152610cc481610c88565b905091905056fea2646970667358221220a905c88cc0d0b6fcc33c09c78415577e8b43924eef0c9b99ce232321bc7f200d64736f6c634300081c0033",
  "linkReferences": {},
  "deployedLinkReferences": {}
}